:020000041004E6
:1010000000000120717D0410853404108B3404101D
:1010100000000000000000000000000000000000D0
:1010200000000000000000000000000091340410E7
:1010300000000000000000009B340410A5340410E0
:10104000D57D0410D57D0410D57D0410D57D041008
:10105000000000000000000000000000D57D04102A
:10106000B5340410D57D0410D57D0410D57D041051
:10107000D57D0410F1340410000000004135041047
:1010800069350410D57D04102535041000000000DA
:10109000173504100000000000000000093504109E
:1010A000D57D041033350410D57D0410D57D041092
:1010B000D57D0410000000000000000000000000CA
:1010C00098A4061010B5904216D98AB2030C090CE8
:1010D0000C46594380B25343444350431B191A04EE
:1010E0001B0C1018594180225203002312184B4147
:1010F000520DD802104310BD4843802252031218EB
:10110000520D104610BDC0468B0707D0013A22D3BE
:101110000B780131037001308B07F7D1830730D092
:10112000DB4219D00138043A08D308C943701B0ABE
:1011300043801B0C03710430043AF6D2D20707D364
:101140000B88437001D08A78C2701B0A8370704785
:1011500001D00B7843707047043A06D308C9038066
:101160001B0C43800430043AF8D2D20705D30B8815
:10117000038005D08B788370704701D00B780370A3
:10118000704770B4103A03D378C978C0103AFBD2D4
:10119000530701D318C918C001D508C908C0D20720
:1011A00004D30B88038002300231002A01D50B786A
:1011B000037070BC7047C046EFF31482EFF30981EF
:1011C000154880F31488BFF36F8FF0B543464C4643
:1011D00055465E466746F8B4104CEFF308836360EB
:1011E00006B4BFF34F8F30BFC046C0460B4C646897
:1011F00084F3088882B003BCF8BC9846A146AA468E
:10120000B346BC46F0BC04BC80F3098881F3148863
:10121000BFF36F8F1047C04600000000040000209D
:1012200002780B78002A03D0013001319A42F7D0BE
:10123000D01A704703B47146490840004900095E5E
:1012400049008E4403BC7047002243088B4274D38C
:1012500003098B425FD3030A8B4244D3030B8B42B7
:1012600028D3030C8B420DD3FF22090212BA030CC0
:101270008B4202D31212090265D0030B8B4219D3A1
:1012800000E0090AC30B8B4201D3CB03C01A5241C1
:10129000830B8B4201D38B03C01A5241430B8B4209
:1012A00001D34B03C01A5241030B8B4201D30B03F2
:1012B000C01A5241C30A8B4201D3CB02C01A524119
:1012C000830A8B4201D38B02C01A5241430A8B42DC
:1012D00001D34B02C01A5241030A8B4201D30B02C5
:1012E000C01A5241CDD2C3098B4201D3CB01C01ADF
:1012F000524183098B4201D38B01C01A52414309E9
:101300008B4201D34B01C01A524103098B4201D3D6
:101310000B01C01A5241C3088B4201D3CB00C01A43
:10132000524183088B4201D38B00C01A52414308BB
:101330008B4201D34B00C01A5241411A00D20146E0
:10134000524110467047FFE701B5002000F006F853
:1013500002BDC0460029F7D076E770477047C04607
:101360009140030090409C46203A934019435242DA
:101370006346D340194370478446100062468C464A
:101380001900634600E0C0461FB500F023FA0028AC
:1013900001D40021C8421FBD10B500F063F94042DE
:1013A000013010BD10B500F015FA002801DB002057
:1013B00010BD012010BDC04610B500F00BFA00288A
:1013C00001DD002010BD012010BDC04610B500F0A9
:1013D0008DF9002801DC002010BD012010BDC046A1
:1013E00010B500F083F9002801DA002010BD0120BB
:1013F00010BDC0461C2101231B04984201D3000CE0
:1014000010391B0A984201D3000A08391B09984277
:1014100001D30009043902A2105C40187047C0468D
:1014200004030202010101010000000000000000AD
:10143000002B11D1002A0FD1002900D1002802D0A1
:101440000021C943080007B4024802A140180290D5
:1014500003BDC04609FFFFFF03B4684601B502980B
:1014600000F034F8019B9E4602B00CBC7047C046A9
:10147000F0B5CE469946030C9C46130447461B0C18
:101480001D000E0061460404240C80B50700100CFA
:101490004B436543414360432C0CC01824188C46D1
:1014A000A34203D980235B029846C444494679434A
:1014B0005643230C2D042D0C891963442404601910
:1014C000C918C0BCB946B046F0BDC046F0B55746D5
:1014D0004E464546DE46E0B504000D00924699466C
:1014E00083B08B4230D82DD04946504601F0B2F837
:1014F00029000600200001F0ADF8331A9846203B81
:1015000034D49B4653465A46934042461F005346A6
:1015100093401E00AF423BD8AF4200D179E05B461A
:10152000A41BBD41002B00DA76E0002200230092CC
:10153000019301235A46934001930123424693406D
:10154000009329E08242CFD9002200230092019328
:101550000C9B002B01D01C605D600098019903B0CA
:10156000F0BCBB46B246A946A046F0BD42469B46EB
:1015700020239B1A5246DA40414613004A468A40CD
:10158000170042461F43534693401E00AF42C3D943
:1015900000220023009201934346002BD8D0FB0782
:1015A00072081A4346467B080EE0AB4201D1A242C4
:1015B0000CD8A41A9D41012024196D410021013E3F
:1015C00024184D41002E06D0AB42EED9013E24191D
:1015D0006D41002EF8D1009801995B4600196941D0
:1015E000002B24DB2B005A464446D3402A00E2401D
:1015F0001C005B461500002B2ADB26009E403300B2
:1016000026004746BE403200801A99410090019161
:101610009EE7A342BCD882E74246202300219B1AC2
:101620000022009101920122DA40019285E74246B0
:1016300020239B1A2A0046469A402300F340444642
:1016400013432A00E2401C005B461500002BD4DA4D
:1016500042462F002023260097409B1ADE403B0085
:101660003343CDE7F0B55746DE464E464546E0B536
:101670000D000400E80F83460903D80F090B8246CA
:1016800019488C461F0369005E00490D3F0B760D1B
:10169000814218D086420FD00120B1420DD1BC4505
:1016A0000BD1944209D1D3451CD0002905D1604605
:1016B0002043431E984100E00120F0BCBB46B246E7
:1016C000A946A046F0BD01208E42F6D161463943BD
:1016D0000F0017432743F0D15B465246981A431E2A
:1016E0009841EAE70020E8E7FF070000F0B5574619
:1016F0004E464546DE46E0B50D000F03390B83B07C
:101700000400804601915800E90F314F400D8C468E
:101710006E00190382469146760D090BD80FBE4222
:101720001FD0BA450FD0002E2FD15546019E34430D
:10173000002D27D10A433AD0002C45D100281AD1D8
:101740000120404217E011433BD1002E02D1019FFE
:101750002743F3D0844509D16346002BF0D060467F
:1017600009E0019F27432CD1B24524D063460220D3
:10177000013B1840013803B0F0BCBB46B246A94655
:10178000A046F0BD002CD9D0E4E75446002CEDD0A3
:101790008445EBD15645E9DCDEDB019B8B42E5D885
:1017A000DAD1C845E2D80020C845E4D2D4E7002009
:1017B000002CE0D0DAE7114303D18445D6D10020D4
:1017C000D9E702204042D6E78445E6D0CEE7C046BE
:1017D000FF070000F0B557464E464546DE46E0B5E9
:1017E0000D000F0304008046E80F390B844683B0D8
:1017F0005800304F400D01911E036900824691460A
:10180000490D360BD80FB94220D0BA450FD0002968
:101810002BD101990C435146002937D1324338D09E
:10182000002C44D1002819D10120404216E0164373
:1018300013D1002902D1019F2743F3D0844520D042
:1018400063460220013B1840013807E0019F27430F
:1018500003D18A45F4D116431FD0022003B0F0BC57
:10186000BB46B246A946A046F0BD5446002CE7D080
:101870008445E5D15145E3DC03DB019BB342DFD86E
:101880000FD06346002BCFD06046E7E7002CC9D0CD
:10189000D4E70020002CE1D0D2E78445D0D100204D
:1018A000DCE7C845CCD80020C845D7D2E9E7844555
:1018B000E3D0C5E7FF070000F0B55746DE464E46C9
:1018C0004546E0B51F000B031B0B16009A46CA0FD6
:1018D0004B000400934687B05B0D00D1D5E0BB4AB6
:1018E000934200D1F8E05146420FC9000A438021DB
:1018F00009041143C2009146B54A8A469D18002347
:10190000984602933C037B00FA0F3000240B5B0DDA
:10191000009200D196E0AD4A934231D0720FE400BC
:101920002243802424041443A94AF00094466344CB
:101930005B195A1C0192424600260A2A42DC5A468A
:1019400000994A4093464246022A32DC013A012A73
:1019500000D949E1022E00D1CAE0012E3DD1002379
:101960000024002210005A461B052343D2071343CC
:10197000190007B0F0BCBB46B246A946A046F0BD70
:10198000924B2643EB18002E00D1BBE003224146C8
:1019900011435A46884600994A40802109018C46E5
:1019A00029006144019141460A2900DD33E2934652
:1019B0000326424601279740A6213A00C9000A4063
:1019C0000F4231D0029E022E00D135E2032E00D10B
:1019D000D2E154464846012EC1D0019A7D4B94462F
:1019E0006344002B00DCC0E0420709D00F22024014
:1019F000042A05D0021D8242804140422418100072
:101A0000E20106D5744B019A1C4080239446DB000A
:101A10006344724A93426BDC6207C00864025B0550
:101A20000243240B5B0D9DE7902189000F4263D197
:101A300088223A4200D1D7E0009BA2469B468146CD
:101A40000296BFE72300334300D17FE0002C00D192
:101A5000ADE12000FFF7CEFC020003000B3A1D2091
:101A60001900821A30000839D0408C4004433000FD
:101A700088405B4AEB1A944663445A1C01924246E2
:101A800000260A2A00DC5AE79CE75346034399469E
:101A900054D05346002B00D177E15046FFF7AAFC03
:101AA0000B235B429C4602008444110050460839D7
:101AB00088401D23804660461B1A2000D840030042
:101AC000404603439A4623008B4099460023444DE9
:101AD0009846AD1A029315E752460243914626D125
:101AE00000221D000223924608329046029309E725
:101AF00000240022354B35E7002380249B46240335
:101B0000324B2FE7022241461143802212019446B4
:101B10002A006244884601920A2900DD52E75A46AB
:101B20000020009904004A40934602260BE70C224D
:101B30001D000323814690460293E3E600239A4664
:101B400004339846033B00250293DBE6424601330B
:101B50001A432B0090465A1C019242460024002052
:101B600001260A2A00DCEAE62CE70122D21A382AEA
:101B700000DDF4E61F2A00DC2AE11F214942CB1ACE
:101B80002100D9400B00202A05D0164A019D944619
:101B90006544AC402043421E90411843072319007E
:101BA0000024014003420CD00F230340042B00D13A
:101BB00040E1031D8342A4411800644261076402AE
:101BC000240BC20800230A43CCE6C046FF070000EE
:101BD00001FCFFFFFF030000FFFFFFFEFE07000008
:101BE0000DFCFFFF3E04000049464A460904090C6B
:101BF0000D00160C020C0004000C4543AC46050019
:101C00007543A84615000F007543009202952A00FF
:101C1000009D6F4365462D0CA94647444F44B84587
:101C200005D91500802252029046454402953D0C8C
:101C3000039565462D043F042D0CAC463D006544DC
:101C40000495250C2404240CAC4625007543A846B5
:101C500065460F006943414489466743390C49444E
:101C60006E43884503D980225202904646440D0CAB
:101C7000A846350045440595039D3F04A8463F0C02
:101C80000904C91988444546039555462E04360C67
:101C90002F0C35004543784381463800A8462D0C6B
:101CA000AA46009A504372434A445244914503D98C
:101CB00080256D02A9464844150CA94645462D04C9
:101CC0002D0CA84665467D43120448449044A9461D
:101CD0003200654662436E437C43170C3619BF19C8
:101CE000BC4203D980246402A446E144029C039EC2
:101CF000A446059D66448E428941AC4612043C04CC
:101D0000120CA2186244494254184644A44646455F
:101D1000A44182466442A046AA4292418C45894130
:101D2000E244D044494252420A43A045A44182457C
:101D30008941644249420C4341463F0CD219121971
:101D4000CC0D049970020843411E884141464A4423
:101D5000F60D52023043490214430843D20135D5EF
:101D60000122430802401343E0071843640834E6A5
:101D7000009BA2469B4681468024534624031C4375
:101D800024034A462E4B240BECE5FFF733FB1523C7
:101D90009C4684440200634620321C2B00DC84E60F
:101DA000002399462300083883409A468EE6FFF7C1
:101DB00021FB02000300153220331C2A00DC4EE612
:101DC00002003400083A0020944052E6019304E6F1
:101DD0001C4B21009C460300019DD3406544A94053
:101DE00019430300AB40581E834119430800D440F7
:101DF0004B0709D00F230B40042B05D00B1D8B4242
:101E00008041404224181800230200D4D6E6012362
:101E100000240022A6E50F29AAD1802352461B03E5
:101E20001A42A9D01C42A7D11C43009B02009B462A
:101E3000034B97E50024C1E60024014B220091E505
:101E4000FF0700001E040000F0B54E464546DE4682
:101E50005746E0B585B0009001910C034F00CE0FBE
:101E6000610A009CB046640F0C4300997F0DC800C6
:101E700011001A001B039C460091019251004B0D6A
:101E80009946019B009DD90F63466A0F5B0A134375
:101E9000EA0094469346C14A03900293914500D1CB
:101EA000CDE0012569404D467D1BAA468E4200D1FA
:101EB00080E0002D00DC35E34946002900D1DFE059
:101EC000974200D194E152460125382A19DC80223C
:101ED000029B12041343029352461F2A00DDE3E1E2
:101EE000534620226146029DD21A9540D9400D43A7
:101EF000614691400A00511E8A411543029ADA4018
:101F0000A41A451BA84280414042241A230200D44F
:101F10003DE16402640A002C00D147E12000FFF794
:101F200069FA0300083B20212800CA1AD0409C40CF
:101F300002009D4022439F4200DD77E1D81B013023
:101F4000091A2C008D40C4406B1E9D411300C240F5
:101F50008B402543002714001D436B0709D00F2336
:101F60002B40042B05D02B1DAB42AD416D426419B3
:101F70001D00230200D440E1884A0137974200D176
:101F800001E1012643468649ED0821404A072A43DC
:101F90007C054D022D0B640D1E4024052C43F607D5
:101FA00034431000210005B0F0BCBB46B246A94640
:101FB000A046F0BD002D00DCD0E24946002900D04B
:101FC000D4E06146029B194300D12BE1691E012D2B
:101FD00000D1D9E1954200D10AE10125382917DC69
:101FE0008A4653461F2B00DDE7E12022D21A029BCE
:101FF000614693401D005346D940634693401A0002
:102000000D43511E8A4153461543029ADA40A418E3
:102010002D188542804140422418230200D4B6E0A6
:102020005E4B01379F4200D1ADE001215C4B6A0855
:102030001C4029400A43E507154364088DE7594AC7
:10204000029B92466246BA441A432CD08E422ED04E
:102050005246002A60D0002F00D1DBE063460E001C
:10206000029CD80862070243E4081300234300D10E
:1020700054E280252D0325432D03484C2D0B8CE77E
:102080006146029B194300D1CCE029000139012DA2
:1020900000D188E1954200D1AAE00125382900DD70
:1020A0002FE78A4618E7012251408E42D0D153468D
:1020B000002B00D1BEE0002F00D038E1CA4622003C
:1020C000024300D1E2E15346591E012B00D10DE23B
:1020D000324A924500D1D2E10127382913DC1F2969
:1020E00000DDEEE12022029B521A250007009A46ED
:1020F000CC4090409540CF40A244421E9041534670
:102100002F43074302933D00654465459241029B7E
:1021100052424F46D41880E7234A7D1C154200D016
:10212000AAE062462500029B05431A43002F00D017
:10213000F5E0002D00D16BE1002A00D152E16346A9
:10214000C51A029BE21AA8429B415B42D31A1A02AB
:1021500000D4D5E163461D1AAC4592410126029B8D
:1021600052421C1B8846A41A0E40F6E697423FD006
:1021700052460125382A00DD4AE78022029B1204DC
:10218000134302932DE73C000025002205E70723B7
:102190002B40002B00D0E2E66BE0C046FF070000BA
:1021A000FFFF7FFF01F8FFFFFE0700002800FFF799
:1021B00021F9030018331F2B00DCB4E62A0008388D
:1021C00082409F4200DDB9E0DB1B581C1F2800DC69
:1021D000A0E115001F3BDD40202805D040231B1A3D
:1021E0009A40531E9A411543072300272B40D0E7FE
:1021F000C00862070243E40837E7EA0863071A43A6
:10220000D34BE4089F4200D12FE72403250B7C0524
:10221000640DC2E6CA462200024358D163460E004E
:10222000029C0393039B5746DA08E7E7C94CFF1A61
:10223000144092E6C84D7A1C2A4200D084E0220065
:102240000243002F00D0EFE0002A00D1E5E0624613
:1022500002990A4300D1C5E06346C5188C46854201
:102260008041644440422418230202D5B94B01370F
:102270001C40BA460395D5E76246851AA8429241AA
:1022800052429146029BE31A1A004B46D21A13009F
:1022900091461A026CD44A464C462A4300D03AE68C
:1022A00000260024002578E6029953460D00203AC6
:1022B000D540202B06D04022D21A0B009340624614
:1022C0001A4393465B465A1E93411D4319E65346F3
:1022D0005A1E012B00D1C6E09D4EB24500D1BDE68D
:1022E00088460E000125382A10DC1F2A7FDC2021B9
:1022F0002500891A070088408D40D740D440411EF0
:102300008841029B3D431B1B054302936246551BBC
:10231000AC459241029B52424F469C1AF6E5002D75
:1023200000D0B7E0002A00D1F0E001260E4063465D
:102330000298D90842070A43C40896E6854CFF1A5A
:1023400014406207E40860E781498A4200D1C9E08D
:102350006346C11881428041029B4042E3181B182A
:10236000DD075C08072349080D4317002B4010E7E1
:1023700063461D1AAC4592410126029B52421C1B2A
:102380008846A41A0E40C6E56346C518029B8542DE
:1023900080419C464042644424180127230200D413
:1023A000F5E6022741E66346C51AA8428041029B32
:1023B0004042E41A0127241AA8E5029D52462B0048
:1023C000203AD34019005346202B06D04022D21A7F
:1023D0002B00934062461A4393465D466B1E9D4117
:1023E0000D4315E66207C0080243E4080DE711003B
:1023F00027002039CF40202A05D040218A1A944056
:10240000250005430395039D6A1E95413D437DE7E5
:10241000002A00D144E701260E406346D908029BFA
:102420005A070A43DC08F0E6002A28D06246029FD9
:10243000C0083A4300D1DCE6620710438022E4087A
:102440001203144209D0FD08154206D16346012645
:102450002C00D8087B0718430E40420FC000C0086C
:102460005207024301E663461D1AAC459241029BA6
:1024700052421C1B0E0088460127A41A46E56346FB
:10248000D908029B5A070A43DC08EEE56346029C22
:102490000393C7E6C008002A00D1AAE662071043EA
:1024A0008022E40812031442D7D0029FFD0815428F
:1024B000D3D163460126D8087B072C0018430E4071
:1024C000CBE70A002700203AD740202905D0402238
:1024D000521A9440250005430395039D6A1E9541B9
:1024E0002F4310E614000025002256E5029B6044AD
:1024F0009946604592414C4452420500A4184CE76D
:102500001A001C002A4300D0B3E6C9E68024002646
:102510002403AEE520210025091A17E50022002535
:102520000B4C3AE5002D00D1F6E54B46DA1B9246FE
:10253000002F00D16FE6382A05DC802636043443AC
:1025400088460E00D1E688460E000125DEE6C0462C
:10255000FF070000FFFF7FFFFE070000002D00D1F6
:1025600068E64B46D91B002F01D18A46A7E5012713
:10257000382900DDC7E5802212041443AFE5C046C8
:102580000B00020070B5164D0C0382B0490000200C
:1025900000920193240B490DDE0FA94204DD11487E
:1025A000814203DD104BF01802B070BD8020400363
:1025B00020430E4C641A1F2C08DD0D4B5B1AD840CB
:1025C00003005842002EEFD11800EDE7094B009AA6
:1025D0009C46030061448B40E2401343F1E7C04650
:1025E000FE0300001D040000FFFFFF7F3304000016
:1025F00013040000EDFBFFFF70B5002816D0C317D1
:10260000C5185D40C40F2800FEF7F4FE104B1B1ADE
:102610005B055B0D0A2814DC02002E001532964083
:102620000B22121AD5402D032D0B03E000240023AA
:10263000002500261B052B43E40723433000190027
:1026400070BD0B3885402D0300262D0BF2E7C046E8
:102650001E04000010B5002903D1FEF7CBFE203088
:1026600002E00800FEF7C6FE10BDC04680B582B08D
:1026700000AF0200FB1D1A70FB1D1B787F2B09D8D1
:10268000FB1D1B781A001F231A40044B01219140A7
:102690000A001A60C046BD4602B080BD00E100E0FD
:1026A00090B583B000AF02003960FB1D1A70FB1DAE
:1026B0001B787F2B28D82F4AFB1D1B785BB29B0809
:1026C000C0339B009B58FA1D1278110003220A4068
:1026D000D200FF2191400A00D2431A4011003B680A
:1026E0009B01FF221A40FB1D1B78180003230340A7
:1026F000DB009A401F48FB1D1B785BB29B080A4316
:10270000C0339B001A5031E01B4AFB1D1B78190097
:102710000F230B40083B9B0806339B00D318043360
:102720001B68FA1D1278110003220A40D200FF2113
:1027300091400A00D2431A4011003B689B01FF22DE
:102740001A40FB1D1B78180003230340DB009A404E
:102750000948FB1D1B781C000F232340083B9B08E6
:102760000A4306339B00C31804331A60C046BD46B3
:1027700003B090BD00E100E000ED00E080B586B060
:1027800000AF7860EFF31083BB60BB687B6101230F
:10279000FB60FB6883F31088C0467B681B682022BF
:1027A0001A437B681A607B693B613B6983F310883D
:1027B000C046C046BD4606B080BD000080B586B0AC
:1027C00000AF7860002005F006FB1C4B1A000021CA
:1027D00008200FF071FD00F03FF800F04FF80821DD
:1027E0007B18E12252021A607B1800225A607B1883
:1027F00000221A817B1800225A817B1800229A81BC
:102800007B181900002009F0E9FE00F007F906F036
:1028100039F9031E01D000F06EFC05F0E5FB05F070
:10282000A3FD01F081F90FF0A1FB002005F0DDFA16
:1028300000231800BD4606B080BDC046A194041018
:1028400080B582B000AFFB1D03221A70FB1D1B7800
:102850001800BD4602B080BD80B500AF002009F071
:102860002FFD012009F02CFD022009F029FD012097
:1028700009F09CFDC046BD4680BD000080B582B019
:1028800000AF3E4B00221A703C4B28220121995484
:102890003A4B502202219954384B78220321995403
:1028A0000121002009F0BEFD0121012009F0BAFD3F
:1028B0000121022009F0B6FD0121032009F0B2FD3B
:1028C00080235B02012118000AF0B2FF80239B00E5
:1028D000012118000AF0ACFF012120200AF0A8FF16
:1028E0008023DB03012118000AF0A2FF244B1A0009
:1028F000002120200FF0E0FC224B1A000021402094
:102900000FF0DAFC204B1A00002180200FF0D4FCDD
:102910001E4A80235B00002118000FF0CDFCFB1D38
:1029200000221A7021E0FB1D1A78144913009B0045
:102930009B18DB00CB181033154A1A60FB1D197861
:10294000FB1D1A780B009B005B18DB000B49591824
:102950000A4813009B009B18DB00C3181C33196046
:10296000FB1D1A78FB1D01321A70FB1D1B78032B0F
:10297000D9D9C046BD4602B080BDC04698010020EE
:10298000614C0410B54C0410314D04105D4D041021
:102990009529041080B584B000AF78607B685B69CE
:1029A000FB60FB681B78180009F0E4FD0300D9B256
:1029B000FB6820229954FB681B785A1C164B1100A7
:1029C000180024F0A1FAFB681B78032B17D01DDC3C
:1029D000022B0FD01ADC002B02D0012B05D015E002
:1029E000002120200FF08CFC11E0002140200FF08E
:1029F00087FC0CE0002180200FF082FC07E08023A0
:102A00005B00002118000FF07BFC00E0C046C046D0
:102A1000BD4604B080BDC046E082061080B500AF60
:102A20000A4B1800FFF7AAFE01210820FFF738FE25
:102A30000820FFF71BFE064B1B6898680023022244
:102A4000002124F0DBFAC046BD4680BD00400041B5
:102A50000415002080B582B000AF78600A00BB1C6E
:102A60001A80154B1B88FF2B21D87B681B780D2BF8
:102A700012D1124A124B1100180024F045FA00F04E
:102A800021F80D4B00221A8080235A000B4B0021A5
:102A9000180024F063FC0AE0074B1B885A1C91B213
:102AA000054A11801A007B681978044B9954C04676
:102AB000BD4602B080BDC046380300203802002069
:102AC000F482061080B500AF434A444B1100180051
:102AD000FEF7A6FB031E0CD1414B180024F084FA2C
:102AE000404B202200219954002120200FF008FCA7
:102AF0006EE03D4A394B11001800FEF791FB031EB2
:102B00000CD13A4B180024F06FFA364B48220021C2
:102B10009954002140200FF0F3FB59E0344A2F4B29
:102B200011001800FEF77CFB031E0CD1314B18007E
:102B300024F05AFA2B4B7022002199540021802056
:102B40000FF0DEFB44E02C4A244B11001800FEF786
:102B500067FB031E0CD1294B180024F045FA214BCA
:102B6000202201219954002120200FF0C9FB2FE0E1
:102B7000234A1A4B11001800FEF752FB031E0CD11A
:102B8000204B180024F030FA164B482201219954AA
:102B9000002140200FF0B4FB1AE01B4A0F4B11003C
:102BA0001800FEF73DFB031E0CD1184B180024F053
:102BB0001BFA0C4B702201219954002180200FF048
:102BC0009FFB05E0054A124B1100180024F09CF908
:102BD000C046BD4680BDC0460483061038020020B2
:102BE0000883061098010020108306101483061035
:102BF0001C830610208306102883061034830610D9
:102C0000408306104C830610588306106483061018
:102C10007083061080B582B000AF78600121082073
:102C20000FF06EFBC046BD4602B080BD80B582B0DD
:102C300000AF0200FB1D1A70FB1D1B78002B04D097
:102C4000002108200FF05CFB04E0044B0521180074
:102C50000CF078FAC046BD4602B080BD9812002044
:102C600080B500AF01235B4218000FF025FAC04683
:102C7000BD4680BD80B500AFC046BD4680BDF0B545
:102C800093B000AF4723FB1800221A700CE04720D6
:102C90003B181A783B1D92000021D150C0463B18CA
:102CA0001A783B1801321A704723FB181B78092B3E
:102CB000EDD910F02BF9031E5AD046257C19FFF7E9
:102CC000BFFD030023707B191B78002B50D04526D5
:102CD000BC190CF045F8030023704423FC1805F0E0
:102CE00059FB030023704323FA187B19B9190C7898
:102CF0001B78D8B2E1B2884200D9231C1370432359
:102D0000FA18FB18442179180C781B78D8B2E1B274
:102D1000884200D9231C13704323FB181B78032B14
:102D200019D021DC022B0DD01EDC002B1FD0012B73
:102D30001AD1012101200FF029F9012101200FF002
:102D400055F911E0002101200FF020F901210120A7
:102D50000FF04CF908E0002101200FF017F90021D5
:102D600001200FF043F9C0460FF070F900E0C046B3
:102D7000BD4613B0F0BD000080B582B000AF0200C8
:102D8000FB1D1A70FB1D1A780E49202013009B00B2
:102D90009B18DB00CB181B1800221A70FB1D1A7839
:102DA00013009B009B18DB0008331A00054BD31857
:102DB000FA225200110018000CF0C4F9C046BD46BA
:102DC00002B080BD9801002080B582B000AF78606D
:102DD0007A6880235B02134002D00020FFF7CCFF0B
:102DE0007B682022134002D00120FFF7C5FF7A68DC
:102DF0008023DB03134002D00220FFF7BDFFC04653
:102E0000BD4602B080BD80B582B000AF78600A00D8
:102E1000BB1C1A80BB1C1B88012B03D10020FFF7B1
:102E2000ABFF1BE0BB1C1B88202B03D10120FFF74D
:102E3000A3FF13E0BB1C1A888023DB019A4203D155
:102E40000220FFF799FF09E0BB1C1A8880239B0032
:102E50009A4203D10320FFF78FFFC046C046BD460C
:102E600002B080BD80B582B000AF78607B681B691E
:102E70001800BD4602B080BD80B584B000AF786058
:102E8000074B196D064B7A680A431A65044B1B6D94
:102E90007A681340FB60FB68C046BD4604B080BD45
:102EA0000000404880B584B000AF7860074B196ED1
:102EB000064B7A680A431A66044B1B6E7A68134005
:102EC000FB60FB68C046BD4604B080BD00004048C2
:102ED00080B582B000AF7860064B1B6E7A681340F5
:102EE0007A689A4201D1012300E000231800BD4610
:102EF00002B080BD0000404880B582B000AF78606D
:102F0000044B196C034B7A680A431A64C046BD46E9
:102F100002B080BD0000404880B582B000AF78604C
:102F2000054B1A6C7B68D943034B0A401A64C046B0
:102F3000BD4602B080BDC0460000404880B500AF2D
:102F400009F0B4FD00F010F800F045F800F0C6F804
:102F500000F072F800F08EF800F05AF80020FFF749
:102F60002DFCFFF77DFEFCE790B589B000AF08248B
:102F70003B19180018231A00002124F0EFF93B0038
:102F8000180008231A00002124F0E8F93B19032255
:102F90001A603B19802252025A603B191022DA60F3
:102FA0003B1918000DF004FA031E01D000F0A3F83D
:102FB0003B0000221A603B0020225A603B000021A7
:102FC00018000DF03FFB031E01D000F094F8C0463E
:102FD000BD4609B090BD80B586B000AF3B0018007B
:102FE00018231A00002124F0B9F93B0002221A60CC
:102FF0003B00802252015A613B0018000DF0B8FCE2
:10300000031E01D000F077F8C046BD4606B080BD73
:1030100080B500AF064B074A1A60054B18000AF04E
:1030200040FA031E01D000F066F8C046BD4680BDE0
:103030003C0300200000304880B582B000AF002380
:103040007B600120FFF744FF031E08D10120FFF73A
:1030500053FF0120FFF760FF0120FFF723FFC0238C
:10306000DB057B603B1D18000AF0BEFEC046BD4676
:1030700002B080BD80B582B000AF3B0018000823CD
:103080001A00002124F06AF90120FFF721FF031E36
:1030900008D10120FFF730FF0120FFF73DFF01209D
:1030A000FFF700FFC0460C4B1800FFF7DBFE0300E4
:1030B0000F2BF8D93B00A02252001A803B000022BF
:1030C0009A703B0000225A603B0018000BF0ECFBAA
:1030D000C046BD4602B080BD0018006080B500AF9C
:1030E0000820FFF7C9FE0420FFF7C6FE04F087FEA4
:1030F000C046BD4680BD80B500AF72B6C046FEE793
:1031000080B582B000AF7860084B1A6A7B68D943FB
:10311000064B0A401A62054B5A6A7B68D943034B37
:103120000A405A62C046BD4602B080BD0000504809
:1031300080B582B000AF7860084B9A6A7B68D9434B
:10314000064B0A409A62054BDA6A7B68D943034B07
:103150000A40DA62C046BD4602B080BD0000504859
:1031600080B584B000AF7860074B196D064B7A6864
:103170000A431A65044B1B6D7A681340FB60FB68B9
:10318000C046BD4604B080BD0000404880B584B054
:1031900000AF7860074B596D064B7A680A435A6551
:1031A000044B5B6D7A681340FB60FB68C046BD460C
:1031B00004B080BD0000404880B584B000AF7860A6
:1031C000074B996D064B7A680A439A65044B9B6DD1
:1031D0007A681340FB60FB68C046BD4604B080BD02
:1031E0000000404880B584B000AF7860074B196E8E
:1031F000064B7A680A431A66044B1B6E7A681340C2
:10320000FB60FB68C046BD4604B080BD000040487E
:1032100080B582B000AF7860064B1B6E7A681340B1
:103220007A689A4201D1012300E000231800BD46CC
:1032300002B080BD0000404880B582B000AF786029
:10324000044B196C034B7A680A431A64C046BD46A6
:1032500002B080BD0000404880B582B000AF786009
:10326000054B1A6C7B68D943034B0A401A64C0466D
:10327000BD4602B080BDC0460000404880B500AFEA
:1032800000F0C6F880235B001800FFF77FFFC04600
:10329000BD4680BD80B582B000AF78607B681B689A
:1032A000094A93420CD180235B021800FFF758FFB4
:1032B000002201210D2009F047FD0D2009F059FDE4
:1032C000C046BD4602B080BD0000304890B589B010
:1032D00000AF786008243B19180018231A00002159
:1032E00024F03CF87B681A68C023DB059A422DD194
:1032F0003B1901221A603B1904221A613B1918007C
:103300000DF036FB031E01D0FFF7F5FE0120FFF79D
:103310007FFF031E08D10120FFF78EFF0120FFF77A
:103320009BFF0120FFF75EFF04F069FD00220021F2
:10333000122009F009FD122009F01BFD00220021D6
:10334000192009F001FD192009F013FDC046BD4602
:1033500009B090BD90B589B000AF78600C243B19DE
:10336000180014231A00002123F0F8FF7B681B6863
:10337000254A934244D18023DB001800FFF71CFF4D
:103380000820FFF7EDFE0420FFF7EAFE3B190122BB
:103390001A603B1902225A603B1900229A603B19BD
:1033A0000022DA603B1900221A613B19174A190002
:1033B000100009F055FE21007B1802221A607B18CC
:1033C00002225A607B1800229A607B180022DA6081
:1033D0007B1802221A617A189023DB05110018006D
:1033E00009F03EFE0120FFF7A3FE0220FFF788FE52
:1033F00000220121082009F0A7FC082009F0B9FCEF
:10340000C046BD4609B090BD0040004100001048D4
:1034100080B500AF0F2100200AF0CCFAF0231B0189
:10342000190000200AF000FB064B190001200AF0E9
:10343000FBFA054B190001200AF0BCFAC046BD4654
:1034400080BDC046C930000036C0000080B582B0E3
:1034500000AF78607B68DB6920221340202B01D10C
:10346000012300E000231800BD4602B080BD80B5F6
:1034700082B000AF78607B685B6ADBB21800BD4643
:1034800002B080BD80B500AFFEE780B500AFFEE7BB
:1034900080B500AFC046BD4680BD80B500AFC04618
:1034A000BD4680BD80B500AF09F060FBC046BD469B
:1034B00080BD000080B582B000AF0C4B1800FFF754
:1034C000C5FF0300012B0CD1084B1800FFF7CFFFFD
:1034D00003001A00FB1D1A70FB1D01211800FFF7E5
:1034E000B9FAC046BD4602B080BDC04600400041AA
:1034F00080B500AF034B18000AF030F8C046BD4657
:1035000080BDC0463C03002080B500AF0CF05AFDE2
:10351000C046BD4680BD80B500AF0CF05CFDC04626
:10352000BD4680BD80B500AF0AF0F6FFC046BD467F
:1035300080BD80B500AF0BF010F8C046BD4680BD21
:1035400080B500AF9023DB050121180009F034F8A5
:1035500080239A009023DB051100180009F02CF855
:10356000C046BD4680BD000080B500AF074B20219E
:10357000180009F021F88023DB01044A190010002B
:1035800009F01AF8C046BD4680BDC046000010488C
:1035900080B586B000AFF860B9607A6000237B61C7
:1035A0000AE000E000BF0100BB685A1CBA60CAB262
:1035B0001A707B6901337B617A697B689A42F0DB20
:1035C0007B681800BD4606B080BD80B586B000AFF0
:1035D000F860B9607A6000237B6109E0BB685A1C1F
:1035E000BA601B78180009F039F87B6901337B61F8
:1035F0007A697B689A42F1DB7B681800BD4606B0A9
:1036000080BD80B582B000AF786001235B421800B6
:10361000BD4602B080BD80B582B000AF7860396031
:103620003B68802292015A6000231800BD4602B018
:1036300080BD80B582B000AF786001231800BD4620
:1036400002B080BD80B584B000AFF860B9607A6028
:1036500000231800BD4604B080BD000080B586B0D0
:1036600000AF7860144A154BD31A7B617B693B61CC
:10367000134B1B68002B02D1114B124A1A60104BDE
:103680001A687B68D3183A699A4207D223F0BCFEC5
:1036900003000C221A6001235B4209E0084B1B68FF
:1036A000FB60074B1A687B68D218054B1A60FB68F1
:1036B0001800BD4606B080BD00000120000C0000CF
:1036C00048030020183B002080B500AFBFF34F8FA8
:1036D000C046044B044ADA60BFF34F8FC046C04671
:1036E000FDE7C04600ED00E00400FA0580B500AF3C
:1036F00002F080FB07F06AFC0300013301D1FFF701
:10370000FAFCC046BD4680BDF0B599B004AF4F236A
:10371000FB1800221A703C23FB1800221A600022BA
:103720009A803B23FB1806221A703823FB180022CC
:103730001A803A1DB94B1000190034231A0023F0E7
:1037400075FE4E257C193B1D18000FF0A9FB0300E8
:1037500023707B191B78002B08D07B191A78B04B8B
:103760001100180023F0D0FBFFF7C5FC4E257C1993
:10377000182100200FF07EF8030023702A00BB18E8
:103780001B78002B07D0BB181A78A64B1100180025
:1037900023F0BAFB03E0A44B180023F025FC4E25D0
:1037A0007C194A23FB181900012007F0F5FD0300DE
:1037B00023707B191B78002B07D07B191A789B4B41
:1037C0001100180023F0A0FB03E0994B180023F030
:1037D0000BFC4D217B1800221A707B187A18127886
:1037E00001210A431A704E257C194F23FB181B78C0
:1037F000012118000EF090FE030023707B191B7846
:10380000002B07D07B191A788A4B1100180023F07F
:103810007BFB03E0884B180023F0E6FB4E26BC1927
:103820004623FD184823FA184F23FB1819784D2317
:10383000FB1818784423FB1800932B0007F054FC66
:1038400003002370BC193C257A193B23FB1819008F
:1038500080200FF00BF80300237028003B185B79E1
:103860001C003B181B791D003B18DB781E003B1821
:103870009B781A003B185B7819003B181B786F483F
:1038800002930191009233002A00210023F03CFBB7
:103890004E26BC196A4B1A001321002007F096FC33
:1038A00003002370BB191B78002B07D0BB191A78B3
:1038B000644B1100180023F027FB03E0624B180053
:1038C00023F092FB4E257C193823FB181A000221A5
:1038D000002007F0A1FC030023707B191B78002B4C
:1038E00007D07B191A78594B1100180023F00CFBF4
:1038F00003E0574B180023F077FB4E257C1902227A
:10390000022100200EF0EEFA030023702A00BB18FB
:103910001B78002B07D0BB181A784E4B11001800EB
:1039200023F0F2FA03E04C4B180023F05DFB4B4B05
:1039300001221A70494B1B784E257C1918000EF095
:1039400073F9030023707B191B78002B07D07B19B8
:103950001A78434B1100180023F0D6FA03E0414BCC
:10396000180023F041FB3D4B01225A703B4B0822CB
:10397000DA703A4B10221A71384B01229A703C23AC
:10398000FA18394B1C21180001F036F8334B98789F
:10399000324B5978314BDB78304A12794E26BC19BC
:1039A0000025029501920093002301220EF04CF9AC
:1039B00003002370BB191B78002B07D0BB191A78A2
:1039C0002A4B1100180023F09FFA03E0284B18003F
:1039D00023F00AFB214B9B78002B17D04E257C1936
:1039E00001200EF0C3FD030023702A00BB181B78D2
:1039F000002B07D0BB181A781E4B1100180023F0BB
:103A000083FA03E01C4B180023F0EEFA1B4B18005E
:103A100023F0EAFAC046BD4615B0F0BD3088061066
:103A200090830610B4830610F483061024840610D5
:103A30006484061094840610C8840610E884061076
:103A40005C9906102C85061070850610A48506105A
:103A5000E88506101C8606105886061050030020C4
:103A600084860610C4860610B0120020F486061064
:103A70003C87061074870610CC8706101488061041
:103A800080B500AF012101200EF03AFCC046BD46D2
:103A900080BD80B500AF012004F09DF90FF01CF946
:103AA000012004F0A2F9C046BD4680BD80B500AF3C
:103AB0000AF0F2FFC046BD4680BD80B500AF0021D0
:103AC00002200EF01DFCC046BD4680BD80B500AF93
:103AD00007F002FAC046BD4680BD80B500AF0121A7
:103AE00004200EF00DFCC046BD4680BD80B500AF81
:103AF000FFF7E3FFC046BD4680BD80B582B000AF92
:103B000078607B6818001AF049FDFFF7D6FFFFF7D1
:103B1000E4FFC046BD4602B080BD80B500AFFFF7F0
:103B2000AFFFC046BD4680BD90B583B000AF314BFE
:103B30001A00002101200EF0BFFB2F4B1A000021BC
:103B400002200EF0B9FB2D4B1A00002104200EF0CC
:103B5000B3FBFFF7CBFDFFF7D7FD294B00229A738C
:103B6000274B012252429A81264A80239B00002142
:103B700018000EF0A1FB224B234A9A61204B234AE6
:103B80001A630A2023F0D0F9214B180023F02CFAF5
:103B900002F0A8F801F084FD1E4B180023F024FA6F
:103BA0000A2023F0C1F9FC1D06200EF0C5FE03001B
:103BB0002370FB1D1B78002B07D0FB1D1A78164BBA
:103BC0001100180023F0A0F903E0144B180023F0B3
:103BD0009BF9012000F07AFD114A124B11001800E8
:103BE0000BF0B0FA064B402200219954C046BD4666
:103BF00003B090BD933A0410AD3A0410CD3A0410CE
:103C000050030020D949041099490410C1490410F7
:103C1000648806108C880610BC880610008906107F
:103C200060EA000060030020F0B599B004AF78604E
:103C30004B23FB1886221A707B681B78042B04D058
:103C40007B681B78822B00D01DE37B6801337B648B
:103C50007B681B78042B03D17B6C0233FB6405E08B
:103C60007B6801333B643B6C0333FB647B6C1B78E8
:103C7000FF2B00D1B7E100DDFCE23E2B57D000DD89
:103C8000F8E2052B03D0102B00D1EAE2F2E27B6CC4
:103C90000233BB60BB685A789B781B0213439AB20D
:103CA000E94B9B899A4218D1E74B012252429A81F3
:103CB000E54B00229A73E54B180023F095F9BB6899
:103CC0005A789B781B0213439BB21900BB68DB78C0
:103CD0001A00DF4B180023F017F900F04DFEDD4B02
:103CE00001221A70BB685A789B781B0213439AB260
:103CF000D84B5A80D74B180001F0D6FFD64B012283
:103D00001A70BB685A789B781B0213439AB2D24B45
:103D10005A80D14B180001F0A3FC012000F0D6FC22
:103D2000CE4ACF4B110018000BF00CFAAEE27B6CC0
:103D300002333B623B6A1B780C2B00D1D0E000DDE4
:103D400047E10A2B00D1ECE000DD42E1012B00D17C
:103D500013E1032B00D03CE13B6A01337B61C14B93
:103D6000180023F041F97B69DA781B791B021343B1
:103D70009BB21800FEF740FC0022BB4BFDF79CFDF8
:103D800002000B0010001900FEF7FAFB06007B6929
:103D9000DA781B791B0213439BB21800FEF72CFC48
:103DA0000022B14BFDF788FD02000B001000190046
:103DB00000220023FDF70AFB031E3DD07B69DA7861
:103DC0001B791B0213439BB21800FEF715FC00225F
:103DD000A54BFDF771FD02000B0014001D007B696F
:103DE000DA781B791B0213439BB21800FEF704FC20
:103DF00000229D4BFDF760FD02000B001000190032
:103E0000FEF7BEFB03001800FEF7F6FB02000B00F6
:103E100020002900FEF718F802000B00100019001E
:103E20000022924BFDF748FD02000B001000190024
:103E3000FEF7A6FB02003AE07B69DA781B791B02E9
:103E400013439BB21800FEF7D7FB0022864BFDF709
:103E500033FD02000B0010001900FEF791FB030078
:103E60001800FEF7C9FB04000D007B69DA781B79A6
:103E70001B0213439BB21800FEF7BEFB00227A4BD5
:103E8000FDF71AFD02000B0020002900FDF7DCFF02
:103E900002000B00100019000022744BFDF70CFD0E
:103EA00002000B0010001900FEF76AFB02007B699C
:103EB00059799B791B020B439BB21C007B69D97912
:103EC0001B7A1B020B439BB219000B009B005B1873
:103ED0005B00674800932300310023F015F881E070
:103EE0003B6A0133FB6100F047FD624B180023F091
:103EF0000BF8FB691B78002B04D15F4B180023F0F3
:103F000073F803E05D4B180023F06EF8FB69DB7873
:103F10001900FB691B791A00594B180022F0F4FFB5
:103F200060E03B6A0133BB61BB691C78BB695A78AE
:103F30009B781B0213439DB2BB691E79BB69053395
:103F40009C46BB69DA7D1B7E1B0213439AB2BB6998
:103F5000597E9B7E1B020B4399B2BB69D87E1B7FA7
:103F60001B0203439BB2029301910092634632000D
:103F70002900200000F0B6F934E03B6A01333B61D0
:103F80003B691C783B695A789B781B0213439DB2AE
:103F90003B691E793B6905339C463B69DA7A1B7B9A
:103FA0001B0213439AB23B69597B9B7B1B020B4359
:103FB00099B23B69D87B1B7C1B0203439BB20293E3
:103FC00001910092634632002900200000F08AF936
:103FD00008E03B6A1B781A002A4B1100180022F0F7
:103FE00093FFC04652E1FB6CFB63FB6B1A785B7876
:103FF0001B0213439BB2244A934200D1F1E0224AB0
:10400000934200DD1FE180221201934244D08022BE
:104010001201934200DD16E1042B49D000DA12E1CF
:104020001A4A934200DD0EE18022D200934200DC66
:1040300009E1174A94466344092B00D903E19A0029
:10404000144BD3181B689F46500300203889061074
:1040500064890610980300209C03002060EA000099
:1040600060030020A48906100000F43F00005940BE
:10407000D8890610488A0610788A0610848A0610A5
:10408000908A0610B48A0610190C00000A04000079
:10409000FFFBFFFF70990610FB6B02333B63DFE011
:1040A0007C4B180022F0A0FFFB6B0233BB62D7E011
:1040B000012008F07BF9784B18000BF093F8764B51
:1040C000052118000BF03EF8CAE0744B180022F0EE
:1040D0008BFFC5E0724B180022F086FF714B9B8965
:1040E0004B257C19704A110018000DF0DCFD03000F
:1040F00023707B191B78002B07D07B191A786B4B28
:104100001100180022F000FFAAE0694B180022F00D
:104110006BFFA5E0674B180022F066FFFB6B0233D4
:104120009A78D97809020A43197909040A435B7914
:104130001B0613431A00604B1100180022F0E4FE26
:10414000FB6B02339A78D97809020A43197909047A
:104150000A435B791B0613431A00584B11001800E1
:1041600022F0D2FE2F217B1801221A704D4B9A8922
:104170004B257C197B181B78190010000DF0A6FD4B
:10418000030023707B191B78002B07D07B191A784A
:104190004B4B1100180022F0B7FE61E0494B1800AC
:1041A00022F022FF5CE0484B180022F01DFFFB6B61
:1041B00002337B627B6A9B78002B0AD07B6A9B78F8
:1041C00019007B6ADB781A00404B180022F09CFE35
:1041D00003E03F4B180022F007FF0A2022F0A4FE64
:1041E0003EE03C4B180022F0FFFEFB6B0233BB634A
:1041F00037243B1908221A70BB6B1A795B791B02B2
:1042000013439BB21A00344B1100180022F07CFEBD
:10421000BB6B1A785B781B02134398B2BB6B9A781E
:10422000DB781B02134399B2BB6B1A795B791B02D3
:1042300013439AB23B191B78002401940024009484
:104240000DF0C5FD0CE0FB6B1A785B781B02134385
:104250009BB21A00214B1100180022F055FEC046F7
:1042600014E07B6C0233FB60FB681B78032B0CD8DB
:10427000FFF72AFA7B6C1B781A00194B1100180003
:1042800022F042FE02E0C04600E0C046BD4615B046
:10429000F0BDC046D08A061078030020F88A0610C8
:1042A000288B06105003002007B201004C8B06102B
:1042B000808B0610A48B0610D88B0610F48B06108A
:1042C0000C8C0610588C0610988C0610C48C0610A6
:1042D000048D06101C8D0610408D0610508D0610A2
:1042E000688D0610F0B587B004AF04000800110017
:1042F0003B60FB1D221C1A703B1D021C1A80BB1D5B
:104300000A1C1A703B1D1A88784B1100180022F005
:10431000FBFD3B6805331B781C003B6804331B78AE
:104320001D003B6803331B781E003B6802331B787B
:104330001A003B6801331B7819003B681B786C48F6
:1043400002930191009233002A00210022F0DCFD4B
:1043500020243B191B881800FEF74EF90022654BFC
:10436000FDF7AAFA02000B0010001900FEF708F989
:1043700006003B191B881800FEF73EF900225D4B32
:10438000FDF79AFA02000B0010001900002200232A
:10439000FDF71CF8031E36D03B191B881800FEF7EA
:1043A0002BF90022534BFDF787FA02000B00140093
:1043B0001D002023FB181B881800FEF71DF90022A2
:1043C0004C4BFDF779FA02000B0010001900FEF7C4
:1043D000D7F803001800FEF70FF902000B002000C9
:1043E0002900FDF731FD02000B001000190000222A
:1043F000414BFDF761FA02000B0010001900FEF7B7
:10440000BFF8020034E02023FB181B881800FEF7D9
:10441000F3F80022374BFDF74FFA02000B001000B3
:104420001900FEF7ADF803001800FEF7E5F80400E8
:104430000D002023FB181B881800FEF7DDF8002272
:104440002C4BFDF739FA02000B0020002900FDF784
:10445000FBFC02000B00100019000022264BFDF7A8
:104460002BFA02000B0010001900FEF789F8020079
:104470002423FB181C882823FB1819880B009B0099
:104480005B185B001D4800932300310022F03CFDC7
:104490001B4B9B7B012B03D1194B03229A7302E028
:1044A000174B02229A73164B3A1D12889A81154BAC
:1044B00000221A70134B3A1D12885A80114B1800B3
:1044C00001F0F2FB104B00221A700F4B3A1D1288BC
:1044D0005A800D4B180001F0C3F80C4B18000AF07D
:1044E00081FEC046BD4603B0F0BDC0467C8D0610BF
:1044F000C08D06100000F43F00005940048E0610E5
:1045000050030020980300209C030020600300203B
:10451000B0B586B002AF0200FB1D1A70FB1D1B7800
:10452000022B00D19CE000DDB4E0002B03D0012B76
:1045300000D178E0AEE05A4B9B890F257C190D2203
:10454000BA180E21791818000DF0B7FC030023707B
:104550007B191B78002B07D07B191A78514B11005F
:10456000180022F0D1FC96E04F4B180022F03CFDE1
:104570000E243B191B7819000D257B191B781A0096
:104580004A4B180022F0C0FC3B191B78022B26D1A5
:104590007B191B78022B22D1454B012201211800E7
:1045A00022F0B2FC3E4B98890F257C190023009322
:1045B0000123012200210DF0B2FC030023707B19BE
:1045C0001B78002B04D03B4B180022F00DFD29E096
:1045D000394B180022F008FD00F0D6F922E0344BE8
:1045E00002220221180022F08FFC2D4B98890F2502
:1045F0007C19002300930223022200210DF08FFC7E
:10460000030023707B191B78002B04D0294B180062
:1046100022F0EAFC3FE0284B180022F0E5FC00F015
:10462000B3F938E037E01E4B9B890F257C19132125
:1046300018000DF0E3FA030023707B191B78002BA0
:1046400007D07B191A781D4B1100180022F05CFC72
:1046500021E01B4B180022F0C7FC00F095F91AE08E
:104660000F4B9B890F257C1918000DF0D9FB030017
:1046700023707B191B78002B07D07B191A78114BFC
:104680001100180022F040FC05E00F4B180022F04A
:10469000ABFC00E0C046C046BD4604B0B0BDC0465D
:1046A00050030020748E06109C8E0610BC8E0610DF
:1046B000DC8E0610108F0610188F0610208F061043
:1046C0004C8F0610708F0610A88F0610F0B595B0AD
:1046D0000CAF0200FB1D1A708023FB61A023BB619D
:1046E000FB1D1B78052B58D89A00944BD3181B68D8
:1046F0009F468023FB61A023BB6104237B614DE0C7
:10470000C823DB00FB61FA231B01BB6105237B612E
:1047100044E000237B6141E0C8239B00FB61C82388
:104720009B00BB6100237B61FA235B003B61844BF0
:1047300040229B5C002B08D0814B402200219954E1
:104740002823FB612823BB6128E07D4B4022012107
:104750009954C8239B00FB61C8239B00BB611DE0EB
:10476000774B9B890F257C19132118000DF046FA11
:10477000030023707B191B78002B07D07B191A7854
:10478000704B1100180022F0BFFB07E06E4B1800C1
:1047900022F02AFC00F0F8F800E0C046FB1D1B7870
:1047A000062B00D1C3E000DDC3E0042B00D19BE069
:1047B00000DDBEE0012B02DC002B03DAB9E0022BA6
:1047C00073D0B6E00823FB18180006231A00002156
:1047D00022F0C4FD0F257C19FA6900230A930023F7
:1047E00009930123089300230793012306930023D1
:1047F00005930023049300230393002302930723CC
:104800000193BB69009313001322022100200DF0D5
:10481000D9FE030023707B191B78002B07D07B196E
:104820001A784A4B1100180022F06EFB07E07B69F2
:10483000DAB2434B9A73464B180022F0D5FB0F2592
:104840007C19444B1C22032100200DF0F0FE0300D4
:1048500023707B191B78002B07D07B191A783E4BED
:104860001100180022F050FB03E03C4B180022F02E
:10487000BBFB0F257C190823FB181A00012101201E
:104880000DF0D9FE030023707B191B78002B07D095
:104890007B191A78324B1100180022F035FB49E0E1
:1048A000304B180022F0A0FB44E00F257C190022B9
:1048B000002100200DF0BFFE0300237029007B18AB
:1048C0001B78002B0BD07B69DAB21D4B9A737B18D7
:1048D0001A78254B1100180022F016FB2AE0234B12
:1048E000180022F081FB25E0154B9889FB6999B2ED
:1048F000BB699AB27B699DB23B699BB20F26BC191A
:1049000000932B000DF0B2FA03002370BB191B7843
:10491000002B07D0BB191A78154B1100180022F094
:10492000F3FA07E0134B180022F05EFB02E0C046EA
:1049300000E0C046C046BD4609B0F0BD98990610DB
:1049400050030020208F06104C8F0610D48F0610C5
:1049500018900610B01200204C9006108890061097
:10496000B4900610F0900610209106104C9106109D
:1049700070910610B491061080B500AF01200DF0C3
:10498000EBFCC046BD4680BD80B500AF01200DF0F8
:104990001FFDC046BD4680BD80B582B000AF7860C7
:1049A000064B180022F020FB80239B0000211800FA
:1049B0000DF0A6FCC046BD4602B080BDF0910610C9
:1049C00080B582B000AF7860012007F00DFDC046D1
:1049D000BD4602B080BD000080B500AF012007F0E9
:1049E00003FD0220FFF772FE024B00229A73C046BD
:1049F000BD4680BD50030020B0B586B000AFF86062
:104A00007A600B23FB180A1C1A701623FB1800226D
:104A10001A8015E116217B181B88FA68D218152315
:104A2000FB1812781A707B181B880133FA68D218A9
:104A300014217B1812781A707B181B78FF2B00D179
:104A40007CE000DDE9E00A2B00D1E8E000DDE4E0F5
:104A5000012B00D1E5E0092B00D0DEE016203B1849
:104A60001A8815243B191B78D3181A00FB689B1869
:104A70001B78582B00D0D6E03B181A883B191B78BE
:104A8000D318013BFA68D3181B78582B00D0CAE022
:104A90007B681A7813257B1912091A707B681A78BB
:104AA0001223FB180F210A401A7029007B181B786B
:104AB000092B0DD93B181A883B191B78D318013BD9
:104AC000FA68D3187A1812783732D2B21A700FE017
:104AD0001623FB181A881523FB181B78D318013BE3
:104AE000FA68D3181322BA1812783032D2B21A7078
:104AF00012217B181B78092B0FD91623FB181A8853
:104B00001523FB181B78D3181A00FB689B187A181A
:104B100012783732D2B21A7085E01623FB181A8841
:104B20001523FB181B78D3181A00FB689B18122258
:104B3000BA1812783032D2B21A7074E016203B18CC
:104B40001B880233FA68D31830221A703B181B886E
:104B50000333FA68D31800221A703B181B880433F9
:104B6000FA68D31802221A703B181B880533FA68BA
:104B7000D3188D221A703B181B880633FA68D31895
:104B800083221A703B181B880733FA68D318002257
:104B90001A703B181B880833FA68D31800221A7061
:104BA0003B181B880933FA68D31801221A707B68F6
:104BB0005A1D3B181B880A33F968CB1812781A70F3
:104BC0007B681A1D3B181B880B33F968CB181278C9
:104BD0001A707B68DA1C3B181B880C33F968CB18F9
:104BE00012781A707B689A1C3B181B880D33F96881
:104BF000CB1812781A707B685A1C3B181B880E332E
:104C0000F968CB1812781A703B181B880F33FA68B2
:104C1000D3187A6812781A7006E0C04604E0C046DD
:104C200002E0C04600E0C0461523FB181B789AB28C
:104C300016217B181B88D3189AB27B1801321A8070
:104C40000B23FB181B789BB21622BA1812889A42C3
:104C500000D2DFE6C046C046BD4606B0B0BD00008B
:104C600080B500AF0F4B180022F0BEF90E4B9B7BB6
:104C7000002B09D10120FFF729FD0C4A0C4B110034
:104C800018000AF05FFA0AE0074B9B7B022B06D163
:104C90008023DB00002118000DF032FBC046C04627
:104CA000BD4680BD009206105003002060EA00005F
:104CB0006003002090B583B000AFFB1D12221A7074
:104CC000154B180022F090F9144B9B7B022B15D04A
:104CD000FC1D0DF011F803002370FB1D1B78002B49
:104CE00007D0FB1D1A780E4B1100180022F00CF9AA
:104CF0000EE00C4B180022F077F909E00120FFF7D5
:104D0000E5FC094A094B110018000AF01BFAC046DD
:104D1000BD4603B090BDC046289206105003002047
:104D2000509206108892061060EA0000600300208E
:104D300080B500AF074B180022F056F9064B9B7B5D
:104D4000022B03D10420FFF7C1FCC046C046BD467C
:104D500080BDC046B49206105003002080B500AF5D
:104D6000034B180022F040F9C046BD4680BDC04646
:104D7000DC920610B0B590B000AF78603F23FB180E
:104D800000221A707B681A785B781B0213439BB26F
:104D9000974A94466344192B00D91BE19A00954B1E
:104DA000D3181B689F467B6802333B623B6A1A78C4
:104DB0005B781B0213439AB20C217B189A813B6AE1
:104DC0001A795B791B0213439AB27B18DA813B6A2A
:104DD0009A79DB791B0213439BB2DAB27B181A7201
:104DE0003B6A08331A007B185A603B6A1A795B7970
:104DF0001B0213439BB21A007F4B9B8802339A42DB
:104E00001CD13F23FB1801221A703B6A1B7A002B2E
:104E100002D0022B09D060E00C217B1802221A700C
:104E20007B18180000F0B8F957E00C217B1801221C
:104E30001A707B18180000F0AFF94EE03B6A1A793F
:104E40005B791B0213439BB21A006B4B5B880133E7
:104E50009A421AD13F23FB1801221A700C217B18A9
:104E600000221A703B6A9A79DB791B0213439BB2CA
:104E7000DAB27B181A723B6A08331A007B185A6040
:104E80007B18180000F088F9A6E03B6A1A795B7974
:104E90001B0213439BB21A00574BDB8801339A4223
:104EA00000D099E03F23FB1801221A700C217B18D7
:104EB00003221A703B6A9A79DB791B0213439BB277
:104EC000DAB27B181A723B6A08331A007B185A60F0
:104ED0007B18180000F060F97EE07DE07B6802330B
:104EE000BB63BB6B5A799B791B0213439BB21A00BD
:104EF000414B5B8801339A4204D13F23FB180122C6
:104F00001A706BE0BB6B5A799B791B0213439BB2FF
:104F10001A00394BDB8801339A425FD13F23FB18DB
:104F200001221A705AE07B6802333B6359E07B68C8
:104F300002337B6255E07B6802337B6300F018FC30
:104F400003001A002D4B1A702C4B1B78032B0BD12E
:104F50002A4B02221A700C217B1804221A707B182B
:104F6000180000F019F93BE0244B1B78042B37D1D3
:104F7000224B02221A700C217B1805221A707B1812
:104F8000180000F009F92BE02F217B1881221A70FC
:104F90007B680233BB62BB6A1A785B781B021343DF
:104FA0009BB20D007C18042118000CF049FF03008F
:104FB00023707B191B78002B07D07B191A78104BB4
:104FC0001100180021F0A0FF0BE00E4B180022F09A
:104FD0000BF806E0C04604E0C04602E0C04600E030
:104FE000C0463F23FB181B781800BD4610B0B0BD6B
:104FF000FFF3FFFF509A0610A0030020A803002033
:10500000049306104493061090B583B000AFFB1DC7
:1050100012221A70234B18000CF018FAFC1D224BB8
:1050200018000CF071FE03002370FB1D1B78002B91
:1050300007D0FB1D1A781D4B1100180021F064FFEA
:1050400003E01B4B180021F0CFFF174B18000CF0AA
:1050500068FE03001A00174B1A80174B18000CF05B
:1050600080FE03001A00134B5A80144B18000CF0FA
:1050700078FE03001A000F4B9A80114B18000CF0B9
:1050800070FE03001A000B4BDA80FB1D1B78002B0F
:1050900004D00C4B180021F0A7FFC046C046BD4607
:1050A00003B090BD754D0410289A06107493061035
:1050B000BC930610A0030020BC990610E0990610CE
:1050C000049A0610F0930610F0B587B002AF39606D
:1050D0001100FB1D021C1A703B1D0A1C1A800F24B4
:1050E0003B1912221A70FB1D1B78012B32D13B6831
:1050F00019683B681B795A1E9341DBB21A00194BA1
:10510000180022F093F9184B9B88013399B23B6841
:105110001B791D003B681B6826003C193A1D10884E
:105120000193009502230A0004210CF027FE0300DE
:105130002370BB191B78002B07D0BB191A780B4BB7
:105140001100180021F0E0FE05E0094B180021F0E5
:105150004BFF00E0C0460F23FB181B781800BD462C
:1051600005B0F0BDB8030020A00300201094061085
:105170005094061080B500AFBFF34F8FC046044B6C
:10518000044ADA60BFF34F8FC046C046FDE7C04611
:1051900000ED00E00400FA05B0B586B000AF78601D
:1051A0007B681B78052B00D943E29A00E24BD318A9
:1051B0001B689F46E14A80235B00D35C012B08D12A
:1051C000DF4B180021F010FF002110200DF098F89F
:1051D00000E0C04630E27B685B681B78082B00D992
:1051E0003EE19A00D74BD3181B689F461723FB1844
:1051F00002221A70D44B180021F0F6FECF4A802309
:105200005B000021D154D14B1B68DB03DB0B013366
:105210009B00DB0ACE4A94466344DA02C74B5A60CD
:10522000CC4B00221A60C54B02221A72C34B0422D7
:105230001A7004200DF0AEF840E0C04B1B7A002B32
:1052400002D1BE4B02221A72C04B1B68DB03DB0B80
:1052500001339B00DB0A181FB84B1B7A1900172576
:105260007C19BD4B1A0004F0D3F8030023702C0006
:105270003B191B78002B11D104200DF0A9F8042054
:105280000DF088F8B54B1B78002B17D03B19022284
:105290001A70B34B180021F0A7FE0FE01723FB187C
:1052A0001B78012B06D104200DF092F804200DF09C
:1052B00071F803E0AB4B180021F096FE1723FB18A2
:1052C0001B78002BB9D1A84B02221A700C217B1835
:1052D000A54A1A607B1801221A71984A81235B0043
:1052E000D25A7B1819000120FFF7EEFEBBE016230F
:1052F000FB1802221A709D4B180021F075FE8F4A90
:1053000080235B000121D154904B1B68DB03DB0B36
:1053100001339B00DB0A063B5B08954A94466344D5
:10532000DA02864B5A608B4B00221A60874B1B684F
:10533000DB03DB0B01339B00DB0A063B5B08DAB2C5
:105340007E4B1A727D4B04221A7004200DF022F855
:1053500047E07A4B1B7A002B0BD17C4B1B68DB039D
:10536000DB0B01339B00DB0A063B5B08DAB2734BB5
:105370001A72724B5B687F4A94466344D80A6F4B3B
:105380001B7A190016257C19734B1A0004F040F89B
:10539000030023702C003B191B78002B11D1042033
:1053A0000DF016F804200CF0F5FF6C4B1B78002B69
:1053B00017D03B1902221A70694B180021F014FE15
:1053C0000FE01623FB181B78012B06D104200CF0EC
:1053D000FFFF04200CF0DEFF03E0624B180021F019
:1053E00003FE1623FB181B78002BB2D10C217B186F
:1053F00001221A715C4B02221A707B185A4A1A60F9
:105400004E4A81235B00D25A7B1819000120FFF716
:105410005BFE28E0584B180021F0E6FD474A802348
:105420005B00D35C012B1DD1444B03221A700C216D
:105430007B1801221A714C4B01221A707B184A4AC0
:105440001A603E4A81235B00D25A7B181900012062
:10545000FFF73AFE06E0494B180021F0C5FD02E0D7
:10546000C046E9E0C046E7E0454B180021F0BCFD2E
:10547000E2E0444B180021F0B7FDDDE01523FB18F6
:1054800002221A707B681B7A1A003F4B1A602B4A63
:1054900080235B00D35C012B1CD1284B5A682D4B19
:1054A0001B68D218384B1B68D218284B1B68DB03CB
:1054B000DB0B01339B00DB0A063B01218B432C49AC
:1054C0008C466344DB029A4224D9304B180021F009
:1054D0008BFDB2E0194A80235B00D35C002B19D10D
:1054E000164B5A681B4B1B68D218274B1B68D218E7
:1054F000164B1B68DB03DB0B01339B00DB0A2449E3
:105500008C466344DB029A4204D9224B180021F0F6
:105510006BFD92E07B685B6819001B4B1A681E4BA1
:10552000180021F083FF02200CF034FF002100203E
:1055300003F010FE6CE0C046B89A0610B0040020DC
:105540007C940610D09A0610A49406101410004003
:105550007C000200CC06002018130020D106002099
:10556000BC940610F0940610B4050020FC940610BC
:10557000820002000000FCEF14950610289506102A
:105580003C9506105C950610C80600207C95061018
:105590007E000200A4950610BC040020284B5A6827
:1055A000284B1B68D3181900274B1B689B081A004F
:1055B00015257C19254B264803F0CEFE03002370E9
:1055C0002C003B191B78002B11D102200CF000FF9E
:1055D00002200CF0DFFE1F4B1B78002B18D03B196C
:1055E00002221A701C4B180021F0FEFC10E015235B
:1055F000FB181B78012B06D102200CF0E9FE0220DB
:105600000CF0C8FE04E0154B180021F0EDFC04E09E
:105610001523FB181B78002BC0D10121002003F0BB
:1056200099FD084B1A68084B1B68D218054B1A6085
:1056300002E0C04600E0C046C046BD4606B0B0BD70
:10564000B0040020CC060020C80600200C13002067
:10565000BC040020D0060020CC950610149606103D
:1056600080B582B000AF78607B681B78002B02D0D9
:10567000012B07D00DE07B685988084A81235B0025
:10568000D15206E0054A81235B0001214942D152F3
:10569000C046C046BD4602B080BDC046B004002032
:1056A00080B500AF154A81235B0001214942D152E8
:1056B000FFF7AAFC124B134A9A60134B1A00002101
:1056C00010200CF0F9FD114B1B68DB03DB0B0133E1
:1056D0009B00DB0A063B5B08DBB20233DBB218003F
:1056E00000F050F80A4B01221A700A4B00221A608F
:1056F000094B00221A60C046BD4680BDB0040020A0
:10570000B0060020655704101D5704101410004007
:10571000D0060020C8060020CC06002080B500AFCF
:105720000120FEF7F5FE0B4B00221A700A4B5B6856
:105730000A4A94466344DB0ADAB2064B5A70FA23EB
:105740005A00074B1100180009F0FCFCC046BD468A
:1057500080BDC04604000020B00400200000FCEF23
:10576000B006002080B582B000AF7860FFF702FD80
:1057700080B500AF024B1B781800BD4680BDC04607
:10578000B004002080B588B000AF0200FB1D1A7085
:10579000FB1D1A78244B1B68DB03DB0B01339B00DA
:1057A000DB0A063B5B08D318013BBB611E4B1B6841
:1057B000DB03DB0B01339B00DB0A063B5B08FB6171
:1057C000FB1D1B78012B04D8184B00221A70FFF721
:1057D000D1FCFB1D1A78FB69D318013BBA699A42C8
:1057E00005D2FB1D1B78BA69D31A0133FB610C216A
:1057F0007B1800221A607B18FA699A60FB1D1A78E0
:105800007B185A600823FA187B181100180007F05B
:10581000A7FB031E04D0064B180021F0E5FBC04691
:10582000C046BD4608B080BD1410004004000020F2
:105830003096061080B582B000AF0200FB1D1A70D2
:10584000054BFA1D12781A7002200CF085FDC04637
:10585000BD4602B080BDC046D006002080B582B0F3
:1058600000AF0200FB1D1A70054BFA1D12781A706A
:1058700004200CF071FDC046BD4602B080BDC0469C
:10588000D1060020B0B590B000AF78603F23FB1880
:1058900000221A707B681A785B781B0213439BB254
:1058A000734A94466344192B00D9D2E09A00714B95
:1058B000D3181B689F467B6802333B623B6A1A78A9
:1058C0005B781B0213439AB20C217B189A813B6AC6
:1058D0001A795B791B0213439AB27B18DA813B6A0F
:1058E0009A79DB791B0213439BB2DAB27B181A72E6
:1058F0003B6A08331A007B185A603B6A1A795B7955
:105900001B0213439BB21A005B4B9B8802339A42E3
:105910001CD13F23FB1801221A703B6A1B7A002B13
:1059200002D0012B09D03DE00C217B1803221A7014
:105930007B18180000F058F934E00C217B18022283
:105940001A707B18180000F04FF92BE03B6A1A79A7
:105950005B791B0213439BB21A00474B5B880133F0
:105960009A4200D077E03F23FB1801221A700C24E2
:105970003B1901221A70414B180021F035FB3B6A9C
:105980009A79DB791B0213439BB2DAB23B191A7284
:105990003B6A08331A003B195A603B19180000F0A3
:1059A00023F958E057E07B6802337B637B6B1A79FD
:1059B0005B791B0213439BB21A002F4B5B880133A8
:1059C0009A424AD13F23FB1801221A7045E07B68B6
:1059D0000233BB63BB6B5A799B791B0213439BB2A7
:1059E0001A00254B5B8801339A4238D13F23FB18BC
:1059F00001221A7033E07B6802333B6330E07B683E
:105A000002337B622CE02F217B1881221A707B6885
:105A10000233BB62BB6A1A785B781B0213439BB2EA
:105A20000D007C18042118000CF00AFA0300237002
:105A30007B191B78002B07D07B191A78104B1100AB
:105A4000180021F061FA0BE00E4B180021F0CCFA9F
:105A500006E0C04604E0C04602E0C04600E0C046A2
:105A60003F23FB181B781800BD4610B0B0BDC046E0
:105A7000FFF3FFFF709B0610D4060020409606102F
:105A800068960610A896061090B583B000AFFB1D6F
:105A900012221A701F4B18000BF0D8FCFC1D1E4B75
:105AA00018000CF031F903002370FB1D1B78002B4C
:105AB00007D0FB1D1A78194B1100180021F024FAA9
:105AC00003E0174B180021F08FFA134B18000CF06D
:105AD00028F903001A00134B1A80134B18000CF01E
:105AE00040F903001A000F4B5A80104B18000CF0BD
:105AF00038F903001A000B4B9A80FB1D1B78002B12
:105B000004D00B4B180021F06FFAC046C046BD46CA
:105B100003B090BD85580410489B0610D896061017
:105B200024970610D4060020009B0610249B061024
:105B300060970610F0B587B002AF39601100FB1D09
:105B4000021C1A703B1D0A1C1A800F23FB1812221C
:105B50001A70FB1D1B78012B36D13B6819683B6816
:105B60001B791A1CD3B2022B01D902231A1CD3B2FF
:105B70001A00194B180021F059FC184B9B8801336F
:105B800099B23B681B791D003B681B680F26BC1946
:105B90003A1D10880193009500230A0004210CF09F
:105BA000EDF803002370BB191B78002B07D0BB193D
:105BB0001A780B4B1100180021F0A6F905E0094BEB
:105BC000180021F011FA00E0C0460F23FB181B78E3
:105BD0001800BD4605B0F0BDE4060020D406002044
:105BE00088970610CC97061080B582B000AF786019
:105BF0007B681B78032B35D040DC022B26D03DDCA4
:105C0000002B3DD0012B00D038E07B685B6801336E
:105C10001B78012B09D1002006F0C8FB1C4B180093
:105C200021F0E2F91B4B01229A707B685B6801331B
:105C30001B78002B26D1002006F0D6FB164B18004F
:105C400021F0D2F9134B00229A701BE0114B012274
:105C50001A70124B180021F0C7F9114B180021F0EF
:105C600053F910E00B4B00221A700E4B180021F074
:105C7000BBF90B4B180021F047F904E0C04602E0E5
:105C8000C04600E0C046C046BD4602B080BDC0462A
:105C9000FC970610E8060020209806104898061089
:105CA0007C9806108098061080B582B000AF7860AE
:105CB0007B681B78002B02D0012B05D00BE07B68A2
:105CC0005A88074BDA8006E0054B01225242DA80FF
:105CD00000F024F8C046C046BD4602B080BDC046B4
:105CE000E806002080B500AF0A4B01225242DA805C
:105CF000FFF7CAFE084A8023DB00002118000CF0E1
:105D0000DBFA044B00221A7000F008F8C046BD46CA
:105D100080BDC046E8060020495D041080B500AF94
:105D2000002006F061FB074B01225A70054B002250
:105D30009A70044B0122DA70024B00221A71C0469D
:105D4000BD4680BDE806002080B584B000AF0F23BB
:105D5000FB1800221A703B1D214A1A603B1D0022CD
:105D60001A71204B1B79002B03D11E4B01221A7193
:105D700002E01C4B00221A71194B01221A70194BB8
:105D80001A79174B5A703B1D1B790233DAB23B1D4F
:105D90001A71144B1B78012B08D1134B180021F0FA
:105DA00023F90F23FB1801221A7003E00F4B180090
:105DB00021F01AF90F23FB181B78002B0CD0094B8C
:105DC000DB880B4A934207D0064BDA883B1D19004B
:105DD0000120FFF7AFFEC046C046BD4604B080BDFF
:105DE000F0060020E8060020B4980610F09806108F
:105DF000FFFF000080B500AF04F028FD074B19003D
:105E0000002004F081FE064B1900012004F07CFE06
:105E1000044B024A1A60C046BD4680BDE807002018
:105E2000F807002008080020F0B589B002AFB9607B
:105E300011007B600F243B19021C1A700C23FB1805
:105E40000A1C1A803B191B78022B03D11A4B1B4AE0
:105E50001A6002E0184B1A4A1A60174B1868172686
:105E6000BC19BD680C23FB181B889C460F23FB182C
:105E700019787B680193282308229B18DB191B885B
:105E800000932B00624604F0E1FE03002370BB196F
:105E90001B78002B01D1002309E01723FB181B7886
:105EA000022B02D101235B4201E002235B42180076
:105EB000BD4607B0F0BDC04608080020F807002026
:105EC000E8070020B0B586B002AF0400080011005A
:105ED0003B60FB1D221C1A70BB1D021C1A703B1D6F
:105EE0000A1C1A80BB1D1B78022B07D12E4B2F4A90
:105EF0001A600E23FB1801221A7006E02A4B2C4A66
:105F00001A600E23FB1800221A70FB1D1B78022B4F
:105F100012D1254B18680F23FC182023FB181D886D
:105F20003A683B1D19880C23FB1800932B0004F0E2
:105F300059FE0300237021E0FB1D1B78002B08D1C4
:105F4000194B1A680E23FB181B781100180004F077
:105F5000DBFD154B18680F23FC183D683B1D1A88A4
:105F6000BB1D19780C23FB1801932023FB181B88F9
:105F700000932B0004F0FCFD030023700F23FB189B
:105F80001B78002B01D1002309E00F23FB181B789D
:105F9000042B02D103235B4201E002235B42180081
:105FA000BD4604B0B0BDC04608080020F807002078
:105FB000E807002090B585B000AF39601100BB1D27
:105FC000021C1A803B1D0A1C1A800E4B18683B1DD0
:105FD0001C883A68BB1D1988230003F0FFFD0300ED
:105FE000FB60FB68002B01D1002307E0FB68002B5E
:105FF00002DA3B1D1B8801E003235B421800BD460B
:1060000005B090BD0808002080B582B000AF020046
:10601000FB1D1A70FB1D1B78022B0AD10B4B1A6853
:106020000B4B9A420DD0094B1B68180004F074FE0C
:1060300008E0FB1D1B78032B04D1002004F07AFE3E
:1060400000E0C046BD4602B080BDC0460808002042
:10605000F807002080B584B000AFF860B9607A60BE
:106060007A68B968FB681800FBF74EF8C046BD4671
:1060700004B080BD80B584B000AFF860B9607A60CC
:106080007A68B968FB68180021F068F9C046BD4617
:1060900004B080BD80B584B000AFF860B9607A60AC
:1060A0007A68B968FB68180021F04AF90300180003
:1060B000BD4604B080BD90B589B000AFF860B9604E
:1060C0007A6010243B19180005F0F4FA21007B18BF
:1060D0001A78FB681A707B185A78BB681A707B189C
:1060E0009A787B681A70C046BD4609B090BD80B5ED
:1060F00082B000AF786039603A687B6811001800A0
:1061000004F0DAFF03001800BD4602B080BD80B580
:1061100084B000AFF860B9607A607A68B968FB68EB
:10612000180002F043F903001800BD4604B080BD1A
:1061300080B584B000AFF860B9607A607A68B968F9
:10614000FB68180001F064FFC046BD4604B080BD86
:1061500080B582B000AF78607B68180022F03EF80E
:1061600003001800BD4602B080BD80B584B000AF0A
:10617000F860B9607A607A68B968FB68180021F045
:10618000C3FE03001800BD4604B080BD80B584B0D6
:1061900000AFF860B9607A607A68B968FB68180087
:1061A00021F0E6FF03001800BD4604B080BD80B5B5
:1061B00082B000AF78607B68180002F097FCC046A0
:1061C000BD4602B080BD80B582B000AF78607B680C
:1061D000180002F0A5FCC046BD4602B080BD80B5E7
:1061E00000AF05F0BBF903001800BD4680BD80B5C7
:1061F00000AF05F0B9F903001800BD4680BD80B5B9
:1062000082B000AF0200FB1D1A70FB1D1B78180046
:1062100005F0B0F9C046BD4602B080BD80B500AF04
:1062200008F02AF903001800BD4680BD80B500AF14
:1062300008F076FF02000B0010001900BD4680BD7B
:1062400080B584B000AFF8603A607B603A687B68E4
:10625000F968080008F0ACFF03001800BD4604B060
:1062600080BD80B582B000AF78607B68180008F010
:10627000B9FFC046BD4602B080BD80B582B000AF58
:10628000786008001100FB1C021C1A70BB1C0A1C61
:106290001A70BB1C1A78FB1C19787B68180008F070
:1062A00029FE0300DBB21800BD4602B080BD80B5F8
:1062B00000AF08F06FFE0300DBB21800BD4680BDE2
:1062C00080B582B000AF78607B68180008F034FDBC
:1062D00002000B0010001900BD4602B080BD80B561
:1062E00000AF08F0CBFEC046BD4680BD80B582B091
:1062F00000AF7860074B5B687F22934319007B688F
:106300007F221A40034B0A435A60C046BD4602B082
:1063100080BDC046C000002080B500AF044B5A6865
:10632000034B80210A435A60C046BD4680BDC0462B
:10633000C000002080B500AF044B5A68034B802199
:106340008A435A60C046BD4680BDC046C00000209A
:1063500080B582B000AF7860074B1B69074A1340D5
:1063600019007B681B02064A1A40034B0A431A6154
:10637000C046BD4602B080BDC0000020FF0000F056
:1063800000FFFF0F80B582B000AF02003960FB1D37
:106390001A70FB1D1B785C2253430B4A94466344DE
:1063A0001B683F22934319003B683F221A40FB1DA4
:1063B0001B785C2043430448844663440A431A60C4
:1063C000C046BD4602B080BDDC00002080B582B072
:1063D00000AF0200FB1D1A70FB1D1B785C225343AB
:1063E000084A944663441A68FB1D1B785C214B43A2
:1063F00004498C46634440210A431A60C046BD46A6
:1064000002B080BDDC00002080B582B000AF020089
:10641000FB1D1A70FB1D1B785C225343084A9446EF
:1064200063441A68FB1D1B785C214B4304498C466E
:10643000634440218A431A60C046BD4602B080BD15
:10644000DC00002080B582B000AF0200FB1D1A7096
:10645000FB1D1B785C225343084A944663441A6828
:10646000FB1D1B785C214B4304498C46634480210F
:106470000A431A60C046BD4602B080BDDC00002061
:1064800080B582B000AF0200FB1D1A70FB1D1B78A7
:106490005C225343084A944663441A68FB1D1B78E8
:1064A0005C214B4304498C46634480218A431A6033
:1064B000C046BD4602B080BDDC00002080B582B081
:1064C00000AF0200FB1D1A70FB1D1B785C225343BA
:1064D000074A944663441B6880221340802B01D1F5
:1064E000012300E000231800BD4602B080BDC04675
:1064F000DC00002080B582B000AF02003960FB1DD7
:106500001A70FB1D1B785C2253430C4A944663446B
:106510001B680B4A134019003B681A02FC239B01BD
:106520001A40FB1D1B785C204343044884466344A7
:106530000A431A60C046BD4602B080BDDC000020A0
:10654000FFC0FFFF80B582B000AF0200FB1D1A70D4
:10655000FB1D1B785C225343054A944663441B6829
:106560001B0A3F2213401800BD4602B080BDC04642
:10657000DC00002080B582B000AF0200FB1D1A7065
:10658000FB1D1B785C225343094A944663441A68F6
:10659000FB1D1B785C214B4305498C4663448021DD
:1065A00009024A401A60C046BD4602B080BDC046DE
:1065B000DC00002080B582B000AF0200FB1D1A7025
:1065C000FB1D1B785C225343094A944663441A68B6
:1065D000FB1D1B785C214B4305498C46634480219D
:1065E00089030A431A60C046BD4602B080BDC0465A
:1065F000DC00002080B582B000AF0200FB1D1A70E5
:10660000FB1D1B785C225343084A944663441A6876
:10661000FB1D1B785C214B4304498C4663440449B1
:106620000A401A60C046BD4602B080BDDC000020B2
:10663000FFFFDFFF80B582B000AF02003960FB1DB5
:106640001A70FB1D1B785C2253430C4A944663442A
:106650001B680B4A134019003B681A06E023DB0451
:106660001A40FB1D1B785C20434304488446634466
:106670000A431A60C046BD4602B080BDDC0000205F
:10668000FFFFFFF880B582B000AF0200FB1D1A705B
:10669000FB1D1B785C225343054A944663441B68E8
:1066A0001B0E072213401800BD4602B080BDC04635
:1066B000DC00002080B582B000AF02003960FB1D15
:1066C0001A70FB1D1B785C2253430C4A94466344AA
:1066D0001B680B4A134019003B68DA0680231B0530
:1066E0001A40FB1D1B785C204343044884466344E6
:1066F0000A431A60C046BD4602B080BDDC000020DF
:10670000FFFFFFF780B582B000AF02003960FB1DCC
:106710001A70FB1D1B785C2253430C4A9446634459
:106720001B680B4A134019003B681A07E023DB057E
:106730001A40FB1D1B785C20434304488446634495
:106740000A431A60C046BD4602B080BDDC0000208E
:10675000FFFFFF8F80B582B000AF0200FB1D1A70F3
:10676000FB1D1B785C225343054A944663441B6817
:106770001B0F072213401800BD4602B080BDC04663
:10678000DC00002080B582B000AF02003960FB1D44
:106790001A70FB1D1B785C225343084A94466344DD
:1067A0005B68FB1D1B785C225343044A9446634498
:1067B0003A685A60C046BD4602B080BDDC00002089
:1067C00080B582B000AF02003960FB1D1A70FB1D5E
:1067D0001B785C225343084A944663449B68FB1D24
:1067E0001B785C225343044A944663443A689A6097
:1067F000C046BD4602B080BDDC00002080B582B03E
:1068000000AF02003960FB1D1A70FB1D1B785C2273
:106810005343084A944663449B69FB1D1B785C22E2
:106820005343044A944663443A689A61C046BD465D
:1068300002B080BDDC00002080B582B000AF020055
:106840003960FB1D1A70FB1D1B785C2253430B4AF9
:1068500094466344DB69FF22934319003B68FF229F
:106860001A40FB1D1B785C20434304488446634464
:106870000A43DA61C046BD4602B080BDDC0000209C
:1068800080B582B000AF0200FB1D1A70FB1D1B78A3
:106890005C225343044A94466344DB69FF2213405D
:1068A0001800BD4602B080BDDC00002080B582B07B
:1068B00000AF02003960FB1D1A70FB1D1B785C22C3
:1068C00053430B4A94466344DB69FF22134019008B
:1068D0003B681A02FB1D1B785C2043430448844636
:1068E00063440A43DA61C046BD4602B080BDC0467B
:1068F000DC00002080B582B000AF0200FB1D1A70E2
:10690000FB1D1B785C225343054A94466344DB69B4
:106910001B0A1B021B0A1800BD4602B080BDC04600
:10692000DC00002080B582B000AF02003960FB1DA2
:106930001A70FB1D1B785C2253430B4A9446634438
:106940001B6A1B0C19043B681B041A0CFB1D1B78EB
:106950005C2043430448844663440A431A62C046A9
:10696000BD4602B080BDC046DC00002080B582B0CC
:1069700000AF0200FB1D1A70FB1D1B785C22534305
:10698000044A944663441B6A1B041B0C1800BD4652
:1069900002B080BDDC00002080B582B000AF0200F4
:1069A000FB1D1A70FB1D1B785C225343094A944659
:1069B00063441A6AFB1D1B785C214B4305498C46D6
:1069C0006344802189050A431A62C046BD4602B06D
:1069D00080BDC046DC00002080B582B000AF020060
:1069E000FB1D1A70FB1D1B785C225343084A94461A
:1069F00063441A6AFB1D1B785C214B4304498C4697
:106A0000634404490A401A62C046BD4602B080BDD4
:106A1000DC000020FFFFFFDF80B582B000AF020086
:106A20003960FB1D1A70FB1D1B785C225343084A1A
:106A3000944663445B6AFB1D1B785C225343044A03
:106A4000944663443A685A62C046BD4602B080BD6F
:106A5000DC00002080B582B000AF0200FB1D1A7080
:106A6000FB1D1B785C225343034A944663445B6AD4
:106A70001800BD4602B080BDDC00002080B582B0A9
:106A800000AF02003960FB1D1A70FB1D1B785C22F1
:106A900053430B4A944663449B6A1B0E19063B689A
:106AA0001B021A0AFB1D1B785C20434304488446E2
:106AB00063440A439A62C046BD4602B080BDC046E8
:106AC000DC00002080B582B000AF02003960FB1D01
:106AD0001A70FB1D1B785C2253430A4A9446634498
